:100000000C9435010C9466010C9466010C94660105
:100010000C9466010C9466010C9466010C946601C4
:100020000C9466010C9466010C9466010C946601B4
:100030000C9466010C9466010C9466010C946601A4
:100040000C9466010C9466010C9466010C94660194
:100050000C9466010C9466010C9466010C94C9031F
:100060000C9466010C943D040C9413040C946601EA
:100070000C9466010C9466010C9466010C94660164
:100080000C9466010C9466010C9466010C94660154
:100090000C9466010C9466010C9466010C94660144
:1000A0000C9466010C9466010C9466010C94660134
:1000B0000C9466010C9466010C9466010C94660124
:1000C0000C9466010C9466010C9466010C94660114
:1000D0000C9466010C9466010C9466010C94660104
:1000E0000C9466010C94ED020C9495010C94A401FF
:1000F0000C944B020C94F1020C94FA020C94CF0273
:100100000C94B8010C94CC020C94C6010C94E70238
:100110000C94C4020C94E3020C94FF020C94D502DC
:100120000C94D9020C94C8020C9442050C94FE0164
:100130000C94DF020C94BA020C9468010C94F50242
:100140000C94FB020C94C002000021002400270044
:100150002A002D00300033000101000004010701D6
:100160000A01000020002300260029002C002F0097
:100170003200000100000301060109010000220015
:10018000250028002B002E00310034000201000061
:10019000050108010B010505050507050808080804
:1001A000020202020A0A080804040404010101010F
:1001B000010101010303030303030303040707070A
:1001C0000C0C0C0C0C0C0C0C0202020206060606AF
:1001D000060606060B0B0B0B0B0B0B0B010210207C
:1001E000200808102040102040800201020108046D
:1001F0000201010204081020408080402010080401
:100200000201800402018040201008040201080459
:10021000020101020408102040800102040810209D
:10022000408000000A0B02090C0D0E0807030401B0
:1002300000000000000000000000000000000000BE
:10024000000000000000000000000000000012118B
:10025000100000000000000000000000000000008E
:100260000000000000000000420511241FBECFEF77
:10027000D1E2DEBFCDBF00E00CBF12E0A0E0B2E0F3
:10028000E2EFFAE000E00BBF02C007900D92A2344B
:10029000B107D9F722E0A2E4B2E001C01D92A83E66
:1002A000B207E1F711E0C5E3D1E000E006C0219715
:1002B0000109802FFE010E946F05C433D10780E041
:1002C0000807A9F70E9473040C9477050C940000AA
:1002D000AF92BF92CF92DF92EF92FF920F931F9354
:1002E000CF93DF936C017B018B01040F151FEB0192
:1002F0005E01AE18BF08C017D10759F06991D60149
:10030000ED91FC910190F081E02DC6011995892BAA
:1003100079F7C501DF91CF911F910F91FF90EF9079
:10032000DF90CF90BF90AF900895FC01538D448D26
:10033000252F30E0842F90E0821B930B541710F090
:10034000CF96089501970895FC01918D828D98179D
:1003500061F0A28DAE0FBF2FB11D5D968C91928D75
:100360009F5F9F73928F90E008958FEF9FEF0895A6
:10037000FC01918D828D981731F0828DE80FF11D6F
:10038000858D90E008958FEF9FEF0895FC01918D8A
:10039000228D892F90E0805C9F4F821B91098F7383
:1003A000992708958BE492E00E94C60121E0892BF1
:1003B00009F420E0822F0895FC01A48DA80FB92F25
:1003C000B11DA35ABF4F2C91848D90E001968F737D
:1003D0009927848FA689B7892C93A089B1898C919C
:1003E000837080648C93938D848D981306C00288EB
:1003F000F389E02D80818F7D80830895EF92FF92B5
:100400000F931F93CF93DF93EC0181E0888F9B8D37
:100410008C8D98131AC0E889F989808185FF15C0F1
:100420009FB7F894EE89FF896083E889F989808114
:100430008370806480839FBF81E090E0DF91CF91E3
:100440001F910F91FF90EF900895F62E0B8D10E005
:100450000F5F1F4F0F731127E02E8C8D8E110CC074
:100460000FB607FCFACFE889F989808185FFF5CFBF
:10047000CE010E94DC01F1CFEB8DEC0FFD2FF11DC1
:10048000E35AFF4FF0829FB7F8940B8FEA89FB89FC
:1004900080818062CFCFCF93DF93EC01888D88235A
:1004A000B9F0AA89BB89E889F9898C9185FD03C0D7
:1004B000808186FD0DC00FB607FCF7CF8C9185FFBC
:1004C000F2CF808185FFEDCFCE010E94DC01E9CF24
:1004D000DF91CF91089580E090E0892B29F00E9470
:1004E000D20181110E94000080E090E0892B49F048
:1004F00080E090E0892B29F00E94000081110E9489
:10050000000080E090E0892B49F080E090E0892BAA
:1005100029F00E94000081110E94000080E090E01C
:10052000892B49F080E090E0892B29F00E9400009F
:1005300081110C94000008958150823108F05AC056
:10054000E82FF0E08827E855FD4F8F4F0C946F059A
:10055000C802CC02BA02C002C402FA02CF02D5021B
:10056000D902DF02E302E702ED02F102FA02F5022C
:10057000FB02FF02809180008F77809380000895B6
:10058000809180008F7DF9CF80918000877FF5CFAB
:1005900084B58F7784BD089584B58F7DFBCF80911E
:1005A000B0008F778093B00008958091B0008F7D68
:1005B000F9CF809190008F7780939000089580917B
:1005C00090008F7DF9CF80919000877FF5CF80914B
:1005D000A0008F778093A00008958091A0008F7D68
:1005E000F9CF8091A000877FF5CF809120018F7790
:1005F000809320010895809120018F7DF9CF809113
:100600002001877FF5CF1F93CF93DF93ECE2F2E0D9
:100610009491E6EEF1E0D491E0EAF1E0C491CC23CC
:10062000B9F0182F992319F0892F0E949C02EC2F02
:10063000F0E0EE0FFF1FE458FE4FA591B4918FB785
:10064000F894EC91111108C0D095DE23DC938FBF94
:10065000DF91CF911F910895DE2BF8CFCF93DF93D9
:10066000282F30E0F901EE5DFD4F8491F901E4524D
:10067000FE4FD491F901EA56FE4FC491CC23A1F06C
:1006800081110E949C02EC2FF0E0EE0FFF1FEE594B
:10069000FE4FA591B491EC91ED2381E090E009F437
:1006A00080E0DF91CF91089580E090E0FACFCF9382
:1006B000DF9390E0FC01E452FE4F24918A569E4F56
:1006C000FC0184918823D1F090E0880F991FFC01F0
:1006D000E85BFE4FA591B491FC01E458FE4FC59133
:1006E000D491623071F49FB7F8943C91822F809539
:1006F00083238C93E8812E2B28839FBFDF91CF919A
:1007000008958FB7F894EC912E2B2C938FBFF6CFD2
:10071000CF93DF93FC0101900020E9F73197AF01FF
:10072000481B590BBC018BE492E00E946801EC016C
:1007300042E050E063E172E08BE492E00E946801E5
:100740008C0F9D1FDF91CF910895CF93DF9384E0AD
:100750000E942E03EC0183E00E942E03892B49F0B6
:1007600086E192E00E94880390E080E0DF91CF91E3
:100770000895CD2B39F487E292E00E94880381E04E
:1007800090E0F4CF86E392E00E94880388E390E053
:10079000EDCF1F920F920FB60F9211242F933F931C
:1007A0008F939F93AF93BF9380914702909148029C
:1007B000A0914902B0914A023091460223E0230FF2
:1007C0002D3758F50196A11DB11D20934602809347
:1007D000470290934802A0934902B0934A02809145
:1007E000420290914302A0914402B09145020196C9
:1007F000A11DB11D8093420290934302A093440235
:10080000B0934502BF91AF919F918F913F912F91EE
:100810000F900FBE0F901F90189526E8230F029699
:10082000A11DB11DD2CF1F920F920FB60F921124AE
:100830000BB60F922F933F934F935F936F937F93DA
:100840008F939F93AF93BF93EF93FF938BE492E0CB
:100850000E94DC01FF91EF91BF91AF919F918F9129
:100860007F916F915F914F913F912F910F900BBEB0
:100870000F900FBE0F901F9018951F920F920FB6FA
:100880000F9211240BB60F922F938F939F93EF9398
:10089000FF93E0915B02F0915C028081E091610244
:1008A000F091620282FD1DC09081809164028F5F91
:1008B0008F7320916502821741F0E0916402F0E0AD
:1008C000E55BFD4F958F80936402FF91EF919F91BF
:1008D0008F912F910F900BBE0F900FBE0F901F9016
:1008E00018958081F2CF789484B5826084BD84B5F8
:1008F000816084BD85B5826085BD85B5816085BD1B
:1009000080916E00816080936E00109281008091D2
:10091000810082608093810080918100816080935A
:100920008100809180008160809380008091B1007F
:1009300084608093B1008091B00081608093B000AA
:1009400080919100826080939100809191008160FC
:1009500080939100809190008160809390008091BD
:10096000A10082608093A1008091A10081608093AA
:10097000A1008091A00081608093A000809121015E
:100980008260809321018091210181608093210107
:100990008091200181608093200180917A008460A1
:1009A00080937A0080917A00826080937A008091AF
:1009B0007A00816080937A0080917A0080688093C9
:1009C0007A001092C100E0915B02F0915C0282E03B
:1009D0008083E0915702F09158021082E091590211
:1009E000F0915A028FEC808310926302E0915F02D3
:1009F000F091600286E08083E0915D02F0915E02FA
:100A0000808180618083E0915D02F0915E0280814F
:100A100088608083E0915D02F0915E028081806851
:100A20008083E0915D02F0915E0280818F7D808302
:100A300062E084E00E94570362E083E00E94570373
:100A400061E08AE00E945703C1E00E94A503892B60
:100A500011F4C09300020E94A503892B49F08091F4
:100A60000002811105C00E9403030E946B02EDCFBA
:100A700081E00E9403030E94A5030197B1F7109241
:100A80000002F3CFEBE4F2E01382128288EE93E0EF
:100A9000A0E0B0E084839583A683B78385E092E0ED
:100AA0009183808385EC90E09587848784EC90E047
:100AB0009787868780EC90E0918B808B81EC90E02B
:100AC000938B828B82EC90E0958B848B86EC90E00C
:100AD000978B868B118E128E138E148E0895EE0FC7
:100AE000FF1F881F8BBF0790F691E02D1994F89493
:020AF000FFCF36
:100AF2000100000000FE01680195014B02C601A43D
:100B020001B8010D0A00574C5F424F494C45525FF4
:100B1200454D5054592000574C5F424F494C455265
:100B22005F46554C4C00574C425F4E4F524D414C24
:020B32000000C1
:00000001FF
