:100000000C9435010C9466010C9466010C94660105
:100010000C9466010C9466010C9466010C946601C4
:100020000C9466010C9466010C9466010C946601B4
:100030000C9466010C9466010C9466010C946601A4
:100040000C9466010C9466010C9466010C94660194
:100050000C9466010C9466010C9466010C94AE0439
:100060000C9466010C9478040C944E040C94660174
:100070000C9466010C9466010C9466010C94660164
:100080000C9466010C9466010C9466010C94660154
:100090000C9466010C9466010C9466010C94660144
:1000A0000C9466010C9466010C9466010C94660134
:1000B0000C9466010C9466010C9466010C94660124
:1000C0000C9466010C9466010C9466010C94660114
:1000D0000C9466010C9466010C9466010C94660104
:1000E0000C9466010C9468010C94C6010C94F10206
:1000F0000C94E7020C94E3020C944B020C94D5028E
:100100000C94C8020C94FE010C94B8010C94CF021C
:100110000C94FA020C94D9020C94F5020C94CC02C3
:100120000C94C0020C94BA020C94A4010C944A07DB
:100130000C9495010C94C4020C94DF020C94FF0201
:100140000C94FB020C94ED02000021002400270017
:100150002A002D00300033000101000004010701D6
:100160000A0100002200250028002B002E0031008B
:10017000340002010000050108010B0100000A0B18
:1001800002090C0D0E080703040100000000000026
:10019000000000000000000000000000000000005F
:1001A000000000000000000012111000000000001C
:1001B000000000000000000000000000000000003F
:1001C0000000000020002300260029002C002F0042
:1001D00032000001000003010601090105050505C3
:1001E000070508080808020202020A0A08080404AF
:1001F00004040101010101010101030303030303DD
:100200000303040707070C0C0C0C0C0C0C0C02026B
:10021000020206060606060606060B0B0B0B0B0B68
:100220000B0B0102102020080810204010204080F5
:1002300002010201080402010102040810204080AA
:100240008040201008040201800402018040201038
:100250000804020108040201010204081020408081
:1002600001020408102040804A0711241FBECFEF6E
:10027000D1E2DEBFCDBF00E00CBF12E0A0E0B2E0F3
:10028000E8E5F3E100E00BBF02C007900D92AC354A
:10029000B107D9F723E0ACE5B2E001C01D92AB3065
:1002A000B207E1F711E0C5E3D1E000E006C0219715
:1002B0000109802FFE010E94A209C433D10780E00A
:1002C0000807A9F70E943D050C94AA090C940000A8
:1002D000AF92BF92CF92DF92EF92FF920F931F9354
:1002E000CF93DF936C017B018B01040F151FEB0192
:1002F0005E01AE18BF08C017D10759F06991D60149
:10030000ED91FC910190F081E02DC6011995892BAA
:1003100079F7C501DF91CF911F910F91FF90EF9079
:10032000DF90CF90BF90AF900895FC01538D448D26
:10033000252F30E0842F90E0821B930B541710F090
:10034000CF96089501970895FC01918D828D98179D
:1003500061F0A28DAE0FBF2FB11D5D968C91928D75
:100360009F5F9F73928F90E008958FEF9FEF0895A6
:10037000FC01918D828D981731F0828DE80FF11D6F
:10038000858D90E008958FEF9FEF0895FC01918D8A
:10039000228D892F90E0805C9F4F821B91098F7383
:1003A000992708958EE692E00E94C60121E0892BEC
:1003B00009F420E0822F0895FC01A48DA80FB92F25
:1003C000B11DA35ABF4F2C91848D90E001968F737D
:1003D0009927848FA689B7892C93A089B1898C919C
:1003E000837080648C93938D848D981306C00288EB
:1003F000F389E02D80818F7D80830895EF92FF92B5
:100400000F931F93CF93DF93EC0181E0888F9B8D37
:100410008C8D98131AC0E889F989808185FF15C0F1
:100420009FB7F894EE89FF896083E889F989808114
:100430008370806480839FBF81E090E0DF91CF91E3
:100440001F910F91FF90EF900895F62E0B8D10E005
:100450000F5F1F4F0F731127E02E8C8D8E110CC074
:100460000FB607FCFACFE889F989808185FFF5CFBF
:10047000CE010E94DC01F1CFEB8DEC0FFD2FF11DC1
:10048000E35AFF4FF0829FB7F8940B8FEA89FB89FC
:1004900080818062CFCFCF93DF93EC01888D88235A
:1004A000B9F0AA89BB89E889F9898C9185FD03C0D7
:1004B000808186FD0DC00FB607FCF7CF8C9185FFBC
:1004C000F2CF808185FFEDCFCE010E94DC01E9CF24
:1004D000DF91CF91089580E090E0892B29F00E9470
:1004E000D20181110E94000080E090E0892B49F048
:1004F00080E090E0892B29F00E94000081110E9489
:10050000000080E090E0892B49F080E090E0892BAA
:1005100029F00E94000081110E94000080E090E01C
:10052000892B49F080E090E0892B29F00E9400009F
:1005300081110C94000008958150823108F05AC056
:10054000E82FF0E08827E855FD4F8F4F0C94A20963
:10055000C802CC02BA02C002C402FA02CF02D5021B
:10056000D902DF02E302E702ED02F102FA02F5022C
:10057000FB02FF02809180008F77809380000895B6
:10058000809180008F7DF9CF80918000877FF5CFAB
:1005900084B58F7784BD089584B58F7DFBCF80911E
:1005A000B0008F778093B00008958091B0008F7D68
:1005B000F9CF809190008F7780939000089580917B
:1005C00090008F7DF9CF80919000877FF5CF80914B
:1005D000A0008F778093A00008958091A0008F7D68
:1005E000F9CF8091A000877FF5CF809120018F7790
:1005F000809320010895809120018F7DF9CF809113
:100600002001877FF5CFCF93DF93282F30E0F901CA
:10061000E458FE4F8491F901EE5DFD4FD491F9014C
:10062000E452FE4FC491CC23A1F081110E949C02A0
:10063000EC2FF0E0EE0FFF1FEE53FE4FA591B491AB
:10064000EC91ED2381E090E009F480E0DF91CF911F
:10065000089580E090E0FACF1F93CF93DF93282F87
:1006600030E0F901E458FE4F8491F901EE5DFD4F51
:10067000D491F901E452FE4FC491CC23A9F0162F76
:1006800081110E949C02EC2FF0E0EE0FFF1FEE594B
:10069000FE4FA591B4918FB7F894EC91111108C059
:1006A000D095DE23DC938FBFDF91CF911F9108950A
:1006B000DE2BF8CFCF93DF9390E0FC01EE5DFD4F92
:1006C000249184529E4FFC0184918823C9F090E0CC
:1006D000880F991FFC01E85BFE4FA591B491FC01C6
:1006E000EE59FE4FC591D49161110DC09FB7F8949A
:1006F0008C91209582238C938881282328839FBF07
:10070000DF91CF910895623051F49FB7F8943C91F6
:10071000822F809583238C93E8812E2BEFCF8FB788
:10072000F894EC912E2B2C938FBFEACFFC01019013
:100730000020E9F73197AF01481B590BBC018EE649
:1007400092E00C9468018F929F92AF92BF92CF92E9
:10075000DF92EF92FF920F931F93CF93DF93CDB76A
:10076000DEB7A1970FB6F894DEBF0FBECDBF6C0108
:10077000990FEE08FF08F7FE47C06DE28EE692E0A3
:100780000E94FE018C0122273327A9012C193D0963
:100790004E095F0919A2CE0181967C019AE0892E4B
:1007A000912CA12CB12CCA01B901A50194010E9480
:1007B0008009605DF70162937F01211531054105D4
:1007C000510589F790E080E0309719F0CF010E9441
:1007D0009603080F191F82E192E00E949603800F92
:1007E000911FA1960FB6F894DEBF0FBECDBFDF916B
:1007F000CF911F910F91FF90EF90DF90CF90BF901E
:10080000AF909F908F900895A701960119A28E0135
:100810000F5D1F4F8AE0C82ED12CE12CF12CCA01AC
:10082000B901A70196010E948009605DF8016293F9
:100830008F01211531054105510589F7309729F0C0
:10084000CF010E9496038C01C6CF10E000E0C3CF19
:100850000F931F9390E0FC01EE5DFD4F6491FC014E
:10086000E452FE4FE491F0E0EE0FFF1FEE53FE4F17
:100870008591949100E412E42FE030E0462F0E942D
:10088000F804611571058105910529F06F5F7F4FAF
:100890008F4F9F4F9F701F910F9108951F920F923E
:1008A0000FB60F9211240BB60F922F933F934F93D5
:1008B0005F936F937F938F939F93AF93BF93EF93C8
:1008C000FF938EE692E00E94DC01FF91EF91BF91D1
:1008D000AF919F918F917F916F915F914F913F91D8
:1008E0002F910F900BBE0F900FBE0F901F90189579
:1008F0001F920F920FB60F9211240BB60F922F93E7
:100900008F939F93EF93FF93E0917E02F0917F028C
:100910008081E0918402F091850282FD1DC090816A
:10092000809187028F5F8F7320918802821741F038
:10093000E0918702F0E0E259FD4F958F80938702A6
:10094000FF91EF919F918F912F910F900BBE0F9080
:100950000FBE0F901F9018958081F2CF1F920F92BB
:100960000FB60F9211242F933F938F939F93AF93C2
:10097000BF938091610290916202A0916302B09155
:1009800064023091600223E0230F2D3758F5019661
:10099000A11DB11D209360028093610290936202B9
:1009A000A0936302B093640280915C0290915D0217
:1009B000A0915E02B0915F020196A11DB11D8093CE
:1009C0005C0290935D02A0935E02B0935F02BF91C0
:1009D000AF919F918F913F912F910F900FBE0F90EC
:1009E0001F90189526E8230F0296A11DB11DD2CFA6
:1009F000CF92DF92EF92FF920F931F93E82FF92F80
:100A000005C0015011092109310961F19081962336
:100A10009417B9F305C0015011092109310911F1E9
:100A2000908196239413F7CFC12CD12CE12CF12C7B
:100A30000AC08FEFC81AD80AE80AF80A0C151D0573
:100A40002E053F0579F080818623841791F36C2D64
:100A50007D2D8E2D9F2D1F910F91FF90EF90DF9098
:100A6000CF90089560E070E080E090E01F910F91DA
:100A7000FF90EF90DF90CF900895789484B58260D6
:100A800084BD84B5816084BD85B5826085BD85B532
:100A9000816085BD80916E00816080936E001092B0
:100AA000810080918100826080938100809181002B
:100AB00081608093810080918000816080938000BC
:100AC0008091B10084608093B1008091B00081601A
:100AD0008093B0008091910082608093910080911A
:100AE000910081608093910080919000816080935B
:100AF00090008091A10082608093A1008091A1006C
:100B000081608093A1008091A00081608093A0000B
:100B10008091210182608093210180912101816077
:100B20008093210180912001816080932001809138
:100B30007A00846080937A0080917A00826080934A
:100B40007A0080917A00816080937A0080917A00A7
:100B5000806880937A001092C100E0917E02F0914B
:100B60007F0282E08083E0917A02F0917B02108222
:100B7000E0917C02F0917D0280E1808310928602F8
:100B8000E0918202F091830286E08083E09180020E
:100B9000F0918102808180618083E0918002F091F8
:100BA0008102808188608083E0918002F0918102DF
:100BB000808180688083E0918002F0918102808151
:100BC0008F7D808360E086E30E945A0360E088E3C3
:100BD0000E945A0361E087E30E945A0361E089E3BF
:100BE0000E945A0362E084E00E945A0362E083E0BC
:100BF0000E945A0360E08DE30E945A0361E087E09F
:100C00000E945A0361E08AE00E945A0361E085E095
:100C10000E945A0361E086E00E945A03C3E0D0E0DC
:100C200003E210E087E4F82E60E087E30E942C03E3
:100C3000CE010197F1F761E087E30E942C03C80120
:100C40000197F1F760E087E30E942C03CE01019742
:100C5000F1F786E30E9428040E94850820E030E036
:100C60004AEA53E40E94130920E030E44CE956E4D8
:100C70000E94E4079B01AC0160E070E080E89FE324
:100C80000E9477070E94560870E070936702609395
:100C9000660283E00E940303892B09F0E8C084E028
:100CA0000E940303892B09F4E4C08FEF90E0909336
:100CB00069028093680280917B00877F80937B002C
:100CC000F0927C0080917A00806480937A00809119
:100CD0007A0086FDFCCF8091780060917900762FB4
:100CE000682F60527109072E000C880B990B0E9427
:100CF000870826E636E646EE5FE30E94E4070E9498
:100D0000560870E070936B0260936A0260E089E3BA
:100D10000E942C03CE010197F1F761E089E30E9464
:100D20002C03C8010197F1F760E089E30E942C03CE
:100D3000CE010197F1F788E30E9428040E948508FC
:100D400020E030E04AEA53E40E94130920E030E456
:100D50004CE956E40E94E4079B01AC0160E070E0BE
:100D600080E89FE30E9477070E94560870E0709326
:100D70006D0260936C0285E192E00E94960380917F
:100D80006602909167020E94A30383E292E00E94B0
:100D9000960380916802909169020E94A30380E308
:100DA00092E00E94960380916A0290916B020E94E9
:100DB000A3038FE392E00E94960380916C029091CE
:100DC0006D020E94A303809166029091670261E028
:100DD000181619060CF460E087E00E942C0380913D
:100DE000680290916902892B09F445C080916502DF
:100DF000882309F440C060E08AE00E942C038DE45F
:100E000092E00E94960380916A0290916B020E9488
:100E1000A3038091680290916902892B41F080912F
:100E20006A0290916B0261E08F3591050CF060E0F1
:100E300086E00E942C0380916A0290916B028F35AC
:100E4000910574F080916C0290916D02181619064C
:100E50003CF0809168029091690261E0892B09F46D
:100E600060E085E00E942C030E946B02DDCE80E0F2
:100E70001DCF81E01BCF61E08AE00E942C038091AE
:100E8000680290916902019709F0B9CF81E08093DF
:100E90006502B5CFEEE6F2E01382128288EE93E0AF
:100EA000A0E0B0E084839583A683B78384E092E0DA
:100EB0009183808385EC90E09587848784EC90E033
:100EC0009787868780EC90E0918B808B81EC90E017
:100ED000938B828B82EC90E0958B848B86EC90E0F8
:100EE000978B868B118E128E138E148E0895505808
:100EF000BB27AA270E948F070C94D9080E94CB0811
:100F000038F00E94D20820F039F49F3F19F426F4FB
:100F10000C94C8080EF4E095E7FB0C94C208E92F86
:100F20000E94EA0858F3BA17620773078407950707
:100F300020F079F4A6F50C940C090EF4E0950B2E34
:100F4000BA2FA02D0B01B90190010C01CA01A0011B
:100F50001124FF27591B99F0593F50F4503E68F176
:100F60001A16F040A22F232F342F4427585FF3CFB7
:100F7000469537952795A795F0405395C9F77EF488
:100F80001F16BA0B620B730B840BBAF09150A1F0D1
:100F9000FF0FBB1F661F771F881FC2F70EC0BA0F57
:100FA000621F731F841F48F4879577956795B795DF
:100FB000F7959E3F08F0B0CF9395880F08F09927DA
:100FC000EE0F9795879508950E94F8070C94D9081D
:100FD0000E94D20858F00E94CB0840F029F45F3FED
:100FE00029F00C94C20851110C940D090C94C808F6
:100FF0000E94EA0868F39923B1F3552391F3951BF6
:10100000550BBB27AA2762177307840738F09F5F29
:101010005F4F220F331F441FAA1FA9F335D00E2E96
:101020003AF0E0E832D091505040E695001CCAF703
:101030002BD0FE2F29D0660F771F881FBB1F2617C6
:1010400037074807AB07B0E809F0BB0B802DBF019D
:10105000FF2793585F4F3AF09E3F510578F00C946C
:10106000C2080C940D095F3FE4F3983ED4F38695D3
:1010700077956795B795F7959F5FC9F7880F911D8D
:101080009695879597F90895E1E0660F771F881F79
:10109000BB1F621773078407BA0720F0621B730B2C
:1010A000840BBA0BEE1F88F7E09508950E94F208B2
:1010B00088F09F5798F0B92F9927B751B0F0E1F019
:1010C000660F771F881F991F1AF0BA95C9F714C0C9
:1010D000B13091F00E940C09B1E008950C940C0914
:1010E000672F782F8827B85F39F0B93FCCF3869502
:1010F00077956795B395D9F73EF49095809570955F
:1011000061957F4F8F4F9F4F0895E89409C097FBDB
:101110003EF490958095709561957F4F8F4F9F4FCE
:101120009923A9F0F92F96E9BB279395F695879512
:1011300077956795B795F111F8CFFAF4BB0F11F4D5
:1011400060FF1BC06F5F7F4F8F4F9F4F16C088237C
:1011500011F096E911C0772321F09EE8872F762FB2
:1011600005C0662371F096E8862F70E060E02AF0F3
:101170009A95660F771F881FDAF7880F96958795DF
:1011800097F9089597F99F6780E870E060E0089507
:101190009FEF80EC089500240A941616170618068F
:1011A0000906089500240A9412161306140605066B
:1011B0000895092E0394000C11F4882352F0BB0FFC
:1011C00040F4BF2B11F460FF04C06F5F7F4F8F4F5F
:1011D0009F4F089557FD9058440F551F59F05F3F9A
:1011E00071F04795880F97FB991F61F09F3F79F049
:1011F00087950895121613061406551FF2CF4695CB
:10120000F1DF08C0161617061806991FF1CF86954C
:101210007105610508940895E894BB276627772730
:10122000CB0197F908950E9426090C94D9080E94D1
:10123000CB0838F00E94D20820F0952311F00C94CE
:10124000C2080C94C80811240C940D090E94EA08E5
:1012500070F3959FC1F3950F50E0551F629FF00109
:10126000729FBB27F00DB11D639FAA27F00DB11D22
:10127000AA1F649F6627B00DA11D661F829F2227AB
:10128000B00DA11D621F739FB00DA11D621F839F32
:10129000A00D611D221F749F3327A00D611D231F08
:1012A000849F600D211D822F762F6A2F11249F5756
:1012B00050409AF0F1F088234AF0EE0FFF1FBB1F59
:1012C000661F771F881F91505040A9F79E3F510518
:1012D00080F00C94C2080C940D095F3FE4F3983E33
:1012E000D4F3869577956795B795F795E7959F5FC2
:1012F000C1F7FE2B880F911D9695879597F9089554
:10130000A1E21A2EAA1BBB1BFD010DC0AA1FBB1F09
:10131000EE1FFF1FA217B307E407F50720F0A21B7B
:10132000B30BE40BF50B661F771F881F991F1A94E8
:1013300069F760957095809590959B01AC01BD0112
:10134000CF010895EE0FFF1F881F8BBF0790F69106
:08135000E02D1994F894FFCF81
:1013580000000000FE01680195014B02C601A401CE
:10136800B8010D0A00574C5F726573657276652087
:101378003A2000574C5F626F696C6572203A200012
:10138800626F696C65725F74656D70203A200077D2
:101398006C5F73746F72616765203A2000426F69F1
:0C13A8006C65722054656D70203A2000C6
:00000001FF
