:100000000C9435010C9466010C9466010C94660105
:100010000C9466010C9466010C9466010C946601C4
:100020000C9466010C9466010C9466010C946601B4
:100030000C9466010C9466010C9466010C946601A4
:100040000C9466010C9466010C9466010C94660194
:100050000C9466010C9466010C9466010C944704A0
:100060000C9466010C9411040C94E7030C94660143
:100070000C9466010C9466010C9466010C94660164
:100080000C9466010C9466010C9466010C94660154
:100090000C9466010C9466010C9466010C94660144
:1000A0000C9466010C9466010C9466010C94660134
:1000B0000C9466010C9466010C9466010C94660124
:1000C0000C9466010C9466010C9466010C94660114
:1000D0000C9466010C9466010C9466010C94660104
:1000E0000C9466010C94F1020C94E7020C94B80194
:1000F0000C94E3020C94CF020C94C6010C9495016D
:100100000C94CC020C9401070C94D9020C94C802F4
:100110000C94D5020C94ED020C94DF020C9468014F
:100120000C94FF020C94FE010C94A4010C94BA02EE
:100130000C94C4020C94FB020C944B020C94FA0233
:100140000C94F5020C94C00200002100240027004A
:100150002A002D00300033000101000004010701D6
:100160000A0100002200250028002B002E0031008B
:10017000340002010000050108010B0100000A0B18
:1001800002090C0D0E080703040100000000000026
:10019000000000000000000000000000000000005F
:1001A000000000000000000012111000000000001C
:1001B000000000000000000000000000000000003F
:1001C0000000000020002300260029002C002F0042
:1001D00032000001000003010601090105050505C3
:1001E000070508080808020202020A0A08080404AF
:1001F00004040101010101010101030303030303DD
:100200000303040707070C0C0C0C0C0C0C0C02026B
:10021000020206060606060606060B0B0B0B0B0B68
:100220000B0B0102102020080810204010204080F5
:1002300002010201080402010102040810204080AA
:100240008040201008040201800402018040201038
:100250000804020108040201010204081020408081
:100260000102040810204080010711241FBECFEFB7
:10027000D1E2DEBFCDBF00E00CBF12E0A0E0B2E0F3
:10028000ECE2F3E100E00BBF02C007900D92AE324A
:10029000B107D9F722E0AEE2B2E001C01D92A03E64
:1002A000B207E1F711E0C5E3D1E000E006C0219715
:1002B0000109802FFE010E948C09C433D10780E020
:1002C0000807A9F70E94D6040C9494090C94000026
:1002D000AF92BF92CF92DF92EF92FF920F931F9354
:1002E000CF93DF936C017B018B01040F151FEB0192
:1002F0005E01AE18BF08C017D10759F06991D60149
:10030000ED91FC910190F081E02DC6011995892BAA
:1003100079F7C501DF91CF911F910F91FF90EF9079
:10032000DF90CF90BF90AF900895FC01538D448D26
:10033000252F30E0842F90E0821B930B541710F090
:10034000CF96089501970895FC01918D828D98179D
:1003500061F0A28DAE0FBF2FB11D5D968C91928D75
:100360009F5F9F73928F90E008958FEF9FEF0895A6
:10037000FC01918D828D981731F0828DE80FF11D6F
:10038000858D90E008958FEF9FEF0895FC01918D8A
:10039000228D892F90E0805C9F4F821B91098F7383
:1003A0009927089583E492E00E94C60121E0892BF9
:1003B00009F420E0822F0895FC01A48DA80FB92F25
:1003C000B11DA35ABF4F2C91848D90E001968F737D
:1003D0009927848FA689B7892C93A089B1898C919C
:1003E000837080648C93938D848D981306C00288EB
:1003F000F389E02D80818F7D80830895EF92FF92B5
:100400000F931F93CF93DF93EC0181E0888F9B8D37
:100410008C8D98131AC0E889F989808185FF15C0F1
:100420009FB7F894EE89FF896083E889F989808114
:100430008370806480839FBF81E090E0DF91CF91E3
:100440001F910F91FF90EF900895F62E0B8D10E005
:100450000F5F1F4F0F731127E02E8C8D8E110CC074
:100460000FB607FCFACFE889F989808185FFF5CFBF
:10047000CE010E94DC01F1CFEB8DEC0FFD2FF11DC1
:10048000E35AFF4FF0829FB7F8940B8FEA89FB89FC
:1004900080818062CFCFCF93DF93EC01888D88235A
:1004A000B9F0AA89BB89E889F9898C9185FD03C0D7
:1004B000808186FD0DC00FB607FCF7CF8C9185FFBC
:1004C000F2CF808185FFEDCFCE010E94DC01E9CF24
:1004D000DF91CF91089580E090E0892B29F00E9470
:1004E000D20181110E94000080E090E0892B49F048
:1004F00080E090E0892B29F00E94000081110E9489
:10050000000080E090E0892B49F080E090E0892BAA
:1005100029F00E94000081110E94000080E090E01C
:10052000892B49F080E090E0892B29F00E9400009F
:1005300081110C94000008958150823108F05AC056
:10054000E82FF0E08827E855FD4F8F4F0C948C0979
:10055000C802CC02BA02C002C402FA02CF02D5021B
:10056000D902DF02E302E702ED02F102FA02F5022C
:10057000FB02FF02809180008F77809380000895B6
:10058000809180008F7DF9CF80918000877FF5CFAB
:1005900084B58F7784BD089584B58F7DFBCF80911E
:1005A000B0008F778093B00008958091B0008F7D68
:1005B000F9CF809190008F7780939000089580917B
:1005C00090008F7DF9CF80919000877FF5CF80914B
:1005D000A0008F778093A00008958091A0008F7D68
:1005E000F9CF8091A000877FF5CF809120018F7790
:1005F000809320010895809120018F7DF9CF809113
:100600002001877FF5CFCF93DF93282F30E0F901CA
:10061000E458FE4F8491F901EE5DFD4FD491F9014C
:10062000E452FE4FC491CC23A1F081110E949C02A0
:10063000EC2FF0E0EE0FFF1FEE53FE4FA591B491AB
:10064000EC91ED2381E090E009F480E0DF91CF911F
:10065000089580E090E0FACF1F93CF93DF93282F87
:1006600030E0F901E458FE4F8491F901EE5DFD4F51
:10067000D491F901E452FE4FC491CC23A9F0162F76
:1006800081110E949C02EC2FF0E0EE0FFF1FEE594B
:10069000FE4FA591B4918FB7F894EC91111108C059
:1006A000D095DE23DC938FBFDF91CF911F9108950A
:1006B000DE2BF8CFCF93DF9390E0FC01EE5DFD4F92
:1006C000249184529E4FFC0184918823C9F090E0CC
:1006D000880F991FFC01E85BFE4FA591B491FC01C6
:1006E000EE59FE4FC591D49161110DC09FB7F8949A
:1006F0008C91209582238C938881282328839FBF07
:10070000DF91CF910895623051F49FB7F8943C91F6
:10071000822F809583238C93E8812E2BEFCF8FB788
:10072000F894EC912E2B2C938FBFEACFFC01019013
:100730000020E9F73197AF01481B590BBC0183E456
:1007400092E00C9468018F929F92AF92BF920F93A8
:100750001F93CF93DF93CDB7DEB7A1970FB6F89471
:10076000DEBF0FBECDBF19A2423008F44AE08E01B1
:100770000F5D1F4F842E912CB12CA12CA50194014B
:100780000E946A09E62FB901CA01EA30F4F4E05D7B
:10079000D801EE938D01232B242B252B79F790E0A4
:1007A00080E0109719F0CD010E949603A1960FB634
:1007B000F894DEBF0FBECDBFDF91CF911F910F9197
:1007C000BF90AF909F908F900895E95CE1CF1F920A
:1007D0000F920FB60F9211240BB60F922F933F93E7
:1007E0004F935F936F937F938F939F93AF93BF9339
:1007F000EF93FF9383E492E00E94DC01FF91EF917D
:10080000BF91AF919F918F917F916F915F914F9128
:100810003F912F910F900BBE0F900FBE0F901F9026
:1008200018951F920F920FB60F9211240BB60F92CC
:100830002F938F939F93EF93FF93E0915302F09147
:1008400054028081E0915902F0915A0282FD1DC04C
:10085000908180915C028F5F8F7320915D0282177F
:1008600041F0E0915C02F0E0ED5BFD4F958F8093ED
:100870005C02FF91EF919F918F912F910F900BBE92
:100880000F900FBE0F901F9018958081F2CF1F928E
:100890000F920FB60F9211242F933F938F939F9334
:1008A000AF93BF938091370290913802A0913902A3
:1008B000B0913A023091360223E0230F2D3758F5DC
:1008C0000196A11DB11D20933602809337029093AB
:1008D0003802A0933902B0933A028091320290918B
:1008E0003302A0913402B09135020196A11DB11DD1
:1008F0008093320290933302A0933402B093350276
:10090000BF91AF919F918F913F912F910F900FBE0B
:100910000F901F90189526E8230F0296A11DB11D78
:10092000D2CFCF92DF92EF92FF920F931F93E82FD7
:10093000F92F05C0015011092109310961F1908198
:1009400096239417B9F305C0015011092109310903
:1009500011F1908196239413F7CFC12CD12CE12C67
:10096000F12C0AC08FEFC81AD80AE80AF80A0C1549
:100970001D052E053F0579F080818623841791F3AC
:100980006C2D7D2D8E2D9F2D1F910F91FF90EF903F
:10099000DF90CF90089560E070E080E090E01F91DC
:1009A0000F91FF90EF90DF90CF900895CF93DF935A
:1009B00000D000D01F921F92CDB7DEB7789484B5D7
:1009C000826084BD84B5816084BD85B5826085BD4B
:1009D00085B5816085BD80916E00816080936E00D9
:1009E00010928100809181008260809381008091CB
:1009F000810081608093810080918000816080937C
:100A000080008091B10084608093B1008091B0003B
:100A100081608093B000809191008260809391000A
:100A2000809191008160809391008091900081601D
:100A3000809390008091A10082608093A1008091BA
:100A4000A10081608093A1008091A00081608093CB
:100A5000A000809121018260809321018091210179
:100A60008160809321018091200181608093200129
:100A700080917A00846080937A0080917A0082600D
:100A800080937A0080917A00816080937A008091CF
:100A90007A00806880937A001092C100E09153023E
:100AA000F091540282E08083E0914F02F091500275
:100AB0001082E0915102F09152028FEC80831092EB
:100AC0005B02E0915702F091580286E08083E0914A
:100AD0005502F0915602808180618083E091550239
:100AE000F0915602808188608083E0915502F091F8
:100AF0005602808180688083E0915502F091560211
:100B000080818F7D808360E086E30E945A0360E0ED
:100B100088E30E945A0361E087E30E945A0361E080
:100B200089E30E945A0362E084E00E945A0362E073
:100B300083E00E945A0360E08DE30E945A0361E063
:100B40008AE00E945A0361E085E00E945A0361E056
:100B500086E00E945A0393E0E92EF12C23E2C22E94
:100B6000D12C38E5232E32E0332E1D821E821F82C7
:100B7000188619821A821B821C8260E087E30E9419
:100B80002C03C7010197F1F761E087E30E942C0372
:100B9000C6010197F1F760E087E30E942C03C701CB
:100BA0000197F1F7F1016491E2E1F2E08491E82F1D
:100BB000F0E0EE0FFF1FEE53FE4F8591949100E49D
:100BC00012E42FE030E0462F0E9491046115710578
:100BD0008105910529F06F5F7F4F8F4F9F4F9F7069
:100BE0000E9441086D837E838F8398876D817E810B
:100BF0008F81988520E030E04FEA53E40E94F808A6
:100C000020E030E44CE956E40E94A00769837A832F
:100C10008B839C8369817A818B819C810E941208DD
:100C200070E090E080E00E94410860933F02709382
:100C30004002809341029093420284E00E940303A9
:100C40003C0183E00E94030370E060E0892B31F4F3
:100C500068E370E0672811F461E070E0072E000C93
:100C6000880B990B0E94430860933B0270933C02EF
:100C700080933D0290933E0282E192E00E949603AF
:100C800040903F02509040026090410270904202BA
:100C9000A3019201C301B2010E9465098823F9F002
:100CA0008FE192E00E9496038BE292E00E9496030D
:100CB00060913F0270914002809141029091420206
:100CC00020E030E044EB52E40E949B0761E087FFA4
:100CD00060E087E00E942C030E946B0246CF530124
:100CE0004201E894B7F82FEF3FEF4FE75FE7C50108
:100CF000B4010E94650981110DC02FEF3FEF4FE74E
:100D00005FE7C501B4010E949B0718161CF483E23B
:100D100092E0C8CF2FEF3FEF4FE75FE4C301B2018E
:100D20000E94F30818161CF487E292E0BBCF2FEF65
:100D30003FEF4FE75FECC301B2010E949B0787FDC5
:100D4000F3CF20E030E0A901C301B2010E949B076C
:100D500087FF09C06DE283E492E00E94FE0177FA0A
:100D6000709477F870942AE037ED43EA5BE3C301AF
:100D7000B2010E942F074B015C010E9412082B0157
:100D80003C010E9441089B01AC01C501B4010E94D5
:100D90002E074B015C014AE0C301B2010E94A3038C
:100DA0006EE283E492E00E94FE0120E030E040E247
:100DB00051E4C501B4010E94F8084B015C010E9496
:100DC00012082B01712C612C4AE0C301B2010E9470
:100DD000A303C301B2010E9441089B01AC01C501FC
:100DE000B4010E942E0720E030E040E251E40E946E
:100DF000F8080E94120890E080E04AE00E94A303F5
:100E000053CFE3E4F2E01382128288EE93E0A0E095
:100E1000B0E084839583A683B78384E092E09183D6
:100E2000808385EC90E09587848784EC90E09787B9
:100E3000868780EC90E0918B808B81EC90E0938BA7
:100E4000828B82EC90E0958B848B86EC90E0978B84
:100E5000868B118E128E138E148E08955058BB27D8
:100E6000AA270E9446070C94B9080E94AB0838F0E4
:100E70000E94B20820F039F49F3F19F426F40C9434
:100E8000A8080EF4E095E7FB0C94A208E92F0E9455
:100E9000CA0858F3BA17620773078407950720F04A
:100EA00079F4A6F50C94EC080EF4E0950B2EBA2F0D
:100EB000A02D0B01B90190010C01CA01A001112460
:100EC000FF27591B99F0593F50F4503E68F11A160C
:100ED000F040A22F232F342F4427585FF3CF46959D
:100EE00037952795A795F0405395C9F77EF41F16BF
:100EF000BA0B620B730B840BBAF09150A1F0FF0F89
:100F0000BB1F661F771F881FC2F70EC0BA0F621F74
:100F1000731F841F48F4879577956795B795F79564
:100F20009E3F08F0B0CF9395880F08F09927EE0FF9
:100F30009795879508950E947E0808F481E00895AA
:100F40000E94B4070C94B9080E94B20858F00E949D
:100F5000AB0840F029F45F3F29F00C94A20851112E
:100F60000C94ED080C94A8080E94CA0868F3992311
:100F7000B1F3552391F3951B550BBB27AA27621795
:100F80007307840738F09F5F5F4F220F331F441FA2
:100F9000AA1FA9F335D00E2E3AF0E0E832D09150D6
:100FA0005040E695001CCAF72BD0FE2F29D0660FC3
:100FB000771F881FBB1F261737074807AB07B0E806
:100FC00009F0BB0B802DBF01FF2793585F4F3AF00C
:100FD0009E3F510578F00C94A2080C94ED085F3FF9
:100FE000E4F3983ED4F3869577956795B795F79592
:100FF0009F5FC9F7880F911D9695879597F908957A
:10100000E1E0660F771F881FBB1F62177307840715
:10101000BA0720F0621B730B840BBA0BEE1F88F724
:10102000E09508950E94D20888F09F5798F0B92F54
:101030009927B751B0F0E1F0660F771F881F991F0D
:101040001AF0BA95C9F714C0B13091F00E94EC08BB
:10105000B1E008950C94EC08672F782F8827B85FCB
:1010600039F0B93FCCF3869577956795B395D9F765
:101070003EF490958095709561957F4F8F4F9F4F6F
:101080000895E89409C097FB3EF49095809570957B
:1010900061957F4F8F4F9F4F9923A9F0F92F96E9C4
:1010A000BB279395F695879577956795B795F11139
:1010B000F8CFFAF4BB0F11F460FF1BC06F5F7F4FD6
:1010C0008F4F9F4F16C0882311F096E911C07723E8
:1010D00021F09EE8872F762F05C0662371F096E8F1
:1010E000862F70E060E02AF09A95660F771F881FC0
:1010F000DAF7880F9695879597F90895990F000864
:10110000550FAA0BE0E8FEEF16161706E807F907D9
:10111000C0F012161306E407F50798F0621B730B74
:10112000840B950B39F40A2661F0232B242B252BF5
:1011300021F408950A2609F4A140A6958FEF811D98
:10114000811D089597F99F6780E870E060E0089539
:101150009FEF80EC089500240A94161617061806CF
:101160000906089500240A941216130614060506AB
:101170000895092E0394000C11F4882352F0BB0F3C
:1011800040F4BF2B11F460FF04C06F5F7F4F8F4F9F
:101190009F4F089557FD9058440F551F59F05F3FDA
:1011A00071F04795880F97FB991F61F09F3F79F089
:1011B00087950895121613061406551FF2CF46950B
:1011C000F1DF08C0161617061806991FF1CF86958D
:1011D0007105610508940895E894BB276627772771
:1011E000CB0197F908950E947E0808F48FEF0895C7
:1011F0000E940B090C94B9080E94AB0838F00E94B9
:10120000B20820F0952311F00C94A2080C94A808C1
:1012100011240C94ED080E94CA0870F3959FC1F345
:10122000950F50E0551F629FF001729FBB27F00D94
:10123000B11D639FAA27F00DB11DAA1F649F6627E9
:10124000B00DA11D661F829F2227B00DA11D621F38
:10125000739FB00DA11D621F839FA00D611D221FF2
:10126000749F3327A00D611D231F849F600D211DD6
:10127000822F762F6A2F11249F5750409AF0F1F059
:1012800088234AF0EE0FFF1FBB1F661F771F881FC2
:1012900091505040A9F79E3F510580F00C94A20850
:1012A0000C94ED085F3FE4F3983ED4F38695779570
:1012B0006795B795F795E7959F5FC1F7FE2B880F68
:1012C000911D9695879597F908950E947E08880B41
:1012D000990B0895A1E21A2EAA1BBB1BFD010DC09C
:1012E000AA1FBB1FEE1FFF1FA217B307E407F507D6
:1012F00020F0A21BB30BE40BF50B661F771F881FB2
:10130000991F1A9469F760957095809590959B0147
:10131000AC01BD01CF010895EE0FFF1F881F8BBFE9
:0C1320000790F691E02D1994F894FFCF8F
:10132C0000000000FE01680195014B02C601A401FA
:10133C00B801574C52657365727665203A20006E81
:0E134C00616E00696E66006F7666000D0A0025
:00000001FF
