:1000000014C1000040C100003EC100003CC100001E
:100010003AC1000038C1000036C1000034C1000000
:1000200032C1000030C100002EC100002CC1000010
:100030002AC1000028C1000026C1000024C1000020
:1000400022C1000020C100001EC100001CC1000030
:100050001AC1000018C1000016C100001FC4000032
:1000600012C100008EC4000063C400000CC1000077
:100070000AC1000008C1000006C1000004C1000060
:1000800002C1000000C10000FEC00000FCC0000072
:10009000FAC00000F8C00000F6C00000F4C0000084
:1000A000F2C00000F0C00000EEC00000ECC0000094
:1000B000EAC00000E8C00000E6C00000E4C00000A4
:1000C000E2C00000E0C00000DEC00000DCC00000B4
:1000D000DAC00000D8C00000D6C00000D4C00000C4
:1000E000D2C000005E016101500154015A01980123
:1000F000650169016F01730177017D01810185014E
:1001000098018B018F01930100002100240027003A
:100110002A002D0030003300010100000401070116
:100120000A0100002200250028002B002E003100CB
:10013000340002010000050108010B0100000A0B58
:1001400002090C0D0E080703040100000000000066
:10015000000000000000000000000000000000009F
:10016000000000000000000012111000000000005C
:10017000000000000000000000000000000000007F
:100180000000000020002300260029002C002F0082
:100190003200000100000301060109010505050503
:1001A000070508080808020202020A0A08080404EF
:1001B000040401010101010101010303030303031D
:1001C0000303040707070C0C0C0C0C0C0C0C0202AC
:1001D000020206060606060606060B0B0B0B0B0BA9
:1001E0000B0B010210202008081020401020408036
:1001F00002010201080402010102040810204080EB
:100200008040201008040201800402018040201078
:1002100008040201080402010102040810204080C1
:100220000102040810204080930611241FBECFEF66
:10023000D1E2DEBFCDBF00E00CBF12E0A0E0B2E033
:10024000E4EBF1E100E00BBF02C007900D92A03398
:10025000B107D9F722E0A0E3B2E001C01D92A63DAC
:10026000B207E1F711E0C5E1D1E000E005C0219758
:100270000109802FFE0190D7C431D10780E0080723
:10028000B1F7FAD395C7BCCE90E0FC013197E231CB
:10029000F10508F04DC08827EE58FF4F8F4F7CC7FF
:1002A000809180008F7703C0809180008F7D809344
:1002B0008000089580918000877FF9CF84B58F7783
:1002C00002C084B58F7D84BD08958091B0008F7782
:1002D00003C08091B0008F7D8093B000089580911D
:1002E00090008F7707C0809190008F7D03C0809130
:1002F0009000877F8093900008958091A0008F7771
:1003000007C08091A0008F7D03C08091A000877FEF
:100310008093A0000895809120018F7707C080917D
:1003200020018F7D03C080912001877F8093200171
:100330000895CF93DF93282F30E0F901E45CFE4F5E
:100340008491F901EE51FE4FD491F901E456FE4F2C
:10035000C491CC2389F0811197DFEC2FF0E0EE0FF0
:10036000FF1FEE57FE4FA591B491EC91ED2381E074
:1003700090E021F480E002C080E090E0DF91CF9136
:1003800008951F93CF93DF93282F30E0F901E45CA9
:10039000FE4F8491F901EE51FE4FD491F901E456DC
:1003A000FE4FC491CC23B9F0162F81116DDFEC2FD5
:1003B000F0E0EE0FFF1FEE5DFE4FA591B4919FB7E9
:1003C000F894111104C08C91D095D82302C0EC91FF
:1003D000DE2BDC939FBFDF91CF911F910895CF93C8
:1003E000DF9390E0FC01EE51FE4F2491FC01E456B6
:1003F000FE4F8491882361F190E0880F991FFC01E2
:10040000E85FFE4FC591D491FC01EE5DFE4FA591D2
:10041000B491611109C09FB7F89488812095822317
:100420008883EC912E230BC0623061F49FB7F8945F
:100430008881322F309583238883EC912E2B2C9347
:100440009FBF06C08FB7F894E8812E2B28838FBFFB
:10045000DF91CF910895CF92DF92EF92FF920F93A9
:100460001F93CF93DF936C017A018B01C0E0D0E042
:10047000CE15DF0581F0D8016D918D01D601ED918A
:10048000FC910190F081E02DC6011995892B11F0A6
:100490002196EECF7E01C701DF91CF911F910F9181
:1004A000FF90EF90DF90CF900895089580E090E066
:1004B0000895FC01538D448D252F30E0842F90E06A
:1004C000821B930B541710F0CF960895019708954F
:1004D000FC01918D828D981761F0828DDF01A80F4C
:1004E000B11D5D968C91928D9F5F9F73928F90E06E
:1004F00008958FEF9FEF0895FC01918D828D9817DD
:1005000031F0828DE80FF11D858D90E008958FEF19
:100510009FEF0895FC01918D228D892F90E0805CE2
:100520009F4F821B91098F739927089589E392E069
:10053000F1DF21E0892B09F420E0822F0895FC01EE
:10054000848DDF01A80FB11DA35ABF4F2C91848D5C
:1005500090E001968F739927848FA689B7892C9391
:10056000A089B1898C91837080648C93938D848DE4
:10057000981306C00288F389E02D80818F7D8083E7
:100580000895EF92FF920F931F93CF93DF93EC01A7
:1005900081E0888F9B8D8C8D981305C0E889F9893F
:1005A000808185FD25C0F62E0B8D10E00F5F1F4F5B
:1005B0000F731127E02E8C8DE8120BC00FB607FCCD
:1005C000FACFE889F989808185FFF5CFCE01B7DFC1
:1005D000F2CF8B8DFE01E80FF11DE35AFF4FF08241
:1005E0009FB7F8940B8FEA89FB89808180620AC0EB
:1005F0009FB7F894EE89FF896083E889F989808143
:100600008370806480839FBF81E090E0DF91CF9111
:100610001F910F91FF90EF900895CF93DF93EC011E
:10062000888D8823C1F0EA89FB89808185FD05C01A
:10063000A889B9898C9186FD0EC00FB607FCF5CF4D
:10064000808185FFF2CFA889B9898C9185FFEDCF94
:10065000CE0175DFE8CFDF91CF91089580E090E083
:10066000892B19F063DF811125C080E090E0892B90
:1006700041F080E090E0892B21F00E940000811180
:100680001CC080E090E0892B41F080E090E0892B55
:1006900021F00E940000811113C080E090E0892BBE
:1006A000A1F080E090E0892B81F00E940000811190
:1006B0000AC008950E940000D8CF0E940000E1CF38
:1006C0000E940000EACF0C940000089583E031DE20
:1006D000892B31F484E02DDE892B21F08FEF0895F2
:1006E00080E0089581E0089580917B00877F80936A
:1006F0007B0087E480937C0080917A008064809303
:100700007A0080917A0086FDFCCF6091780080911C
:10071000790070E0782B60527109072E000C880B6D
:10072000990B29D426E636E646EE5FE38ED3F5D361
:10073000862F08950F931F9390E0FC01EE51FE4F1A
:100740006491FC01E456FE4FE491F0E0EE0FFF1FD0
:10075000EE57FE4F8591949100E412E42FE030E0D3
:10076000462F45D1611571058105910549F0DC01E0
:10077000CB010196A11DB11DBC01CD019F7003C02D
:1007800060E070E0CB011F910F910895009761F038
:10079000FC0101900020E9F73197AF01481B590B8C
:1007A000BC0189E392E057CE80E090E008958F92FB
:1007B0009F92AF92BF92CF92DF92EF92FF920F93F0
:1007C0001F93CF93DF93CDB7DEB7A1970FB6F89401
:1007D000DEBF0FBECDBF6C01990FEE08FF08F7FE1C
:1007E00028C06DE289E392E0CCDE8C01222733271A
:1007F000A9012C193D094E095F0919A2CE01819664
:100800007C019AE0892E912CA12CB12CCA01B9014E
:10081000A50194019FD4605DF70162937F012115CA
:1008200031054105510591F7CF01B0DF080F191FC0
:100830001CC0A701960119A28E010F5D1F4F8AE00F
:10084000C82ED12CE12CF12CCA01B901A7019601C7
:1008500081D4605DF80162938F0121153105410556
:10086000510591F7CF0192DF8C0182E192E08EDF9A
:10087000800F911FA1960FB6F894DEBF0FBECDBFBB
:10088000DF91CF911F910F91FF90EF90DF90CF906C
:10089000BF90AF909F908F90089586D41F920F9233
:1008A0000FB60F9211242F933F938F939F93AF9383
:1008B000BF938091350290913602A0913702B0919A
:1008C00038023091340223E0230F2D3720F40196B3
:1008D000A11DB11D05C026E8230F0296A11DB11D63
:1008E000209334028093350290933602A09337020E
:1008F000B09338028091300290913102A09132027F
:10090000B09133020196A11DB11D809330029093E6
:100910003102A0933202B0933302BF91AF919F9105
:100920008F913F912F910F900FBE0F901F901895B0
:100930001F920F920FB60F9211240BB60F922F93A6
:100940003F934F935F936F937F938F939F93AF9357
:10095000BF93EF93FF9389E392E0F1DDFF91EF9175
:10096000BF91AF919F918F917F916F915F914F91C7
:100970003F912F910F900BBE0F900FBE0F901F90C5
:1009800018951F920F920FB60F9211240BB60F926B
:100990002F938F939F93EF93FF93E0914902F091F0
:1009A0004A028081E0914F02F091500282FD12C014
:1009B0009081809152028F5F8F7320915302821732
:1009C00051F0E0915202F0E0E75CFD4F958F80938B
:1009D000520201C08081FF91EF919F918F912F91E1
:1009E0000F900BBE0F900FBE0F901F901895CF92D7
:1009F000DF92EF92FF920F931F93E82FF92F05C01C
:100A0000015011092109310961F190819623941750
:100A1000B9F305C0015011092109310911F1908183
:100A200096239413F7CFC12CD12CE12CF12C0AC0C2
:100A30008FEFC81AD80AE80AF80A0C151D052E050A
:100A40003F0579F080818623841791F36C2D7D2DED
:100A50008E2D9F2D1F910F91FF90EF90DF90CF90E3
:100A6000089560E070E080E090E01F910F91FF90AA
:100A7000EF90DF90CF900895789484B5826084BD24
:100A800084B5816084BD85B5826085BD85B5816092
:100A900085BD80916E00816080936E001092810010
:100AA00080918100826080938100809181008160CB
:100AB000809381008091800081608093800080918C
:100AC000B10084608093B1008091B0008160809318
:100AD000B00080919100826080939100809191009C
:100AE000816080939100809190008160809390005C
:100AF0008091A10082608093A1008091A10081601B
:100B00008093A1008091A00081608093A0008091DB
:100B10002101826080932101809121018160809375
:100B200021018091200181608093200180917A00D1
:100B3000846080937A0080917A00826080937A004A
:100B400080917A00816080937A0080917A00806839
:100B500080937A001092C100E0914902F0914A021C
:100B600082E08083E0914502F09146021082E0919C
:100B70004702F091480280E1808310925102E09197
:100B80004D02F0914E0286E08083E0914B02F0919D
:100B90004C02808180618083E0914B02F0914C0295
:100BA000808188608083E0914B02F0914C028081CB
:100BB00080688083E0914B02F0914C0280818F7DB0
:100BC000808360E086E30BDC60E088E308DC61E0C2
:100BD00087E305DC61E089E302DC62E084E0FFDBBF
:100BE00062E083E0FCDB60E08DE3F9DB61E087E05D
:100BF000F6DB61E08AE0F3DB61E085E0F0DB61E0F9
:100C000086E0EDDBC3E0D0E083E2C82ED12C60E0CB
:100C100087E3B7DBCE010197F1F761E087E3B1DB52
:100C2000C6010197F1F760E087E3ABDBCE010197E6
:100C3000F1F786E37FDD9DD120E030E04AEA53E41E
:100C400026D220E030E44CE956E4FFD09B01AC0111
:100C500060E070E080E89FE393D05FD1611102C053
:100C600061E001C060E087E08CDB30DD813041F085
:100C70003BDD8F3518F02ADD811102C061E001C033
:100C800060E08AE07EDB22DDE82EF12C2DDD082FEE
:100C900010E085E192E07ADDC70189DD81E292E032
:100CA00075DDC80184DDEF2829F00F35110514F436
:100CB00061E001C060E086E064DB16DD8F3570F135
:100CC00060E089E35EDBCE010197F1F761E089E343
:100CD00058DBC6010197F1F760E089E352DBCE01F2
:100CE0000197F1F788E326DD44D120E030E04AEABD
:100CF00053E4CDD120E030E44CE956E4A6D09B018A
:100D0000AC0160E070E080E89FE33AD006D1611169
:100D100005C0DCDC882311F061E001C060E085E003
:100D200030DB9CDC74CFE9E3F2E01382128288EEC0
:100D300093E0A0E0B0E084839583A683B78384E04A
:100D400092E09183808385EC90E09587848784ECA2
:100D500090E09787868780EC90E0918B808B81EC88
:100D600090E0938B828B82EC90E0958B848B86EC69
:100D700090E0978B868B118E128E138E148E0895B1
:100D80005058BB27AA270ED048C139D130F03ED1E8
:100D900020F031F49F3F11F41EF42EC10EF4E095C3
:100DA000E7FB24C1E92F4AD180F3BA176207730722
:100DB0008407950718F071F49EF562C10EF4E09572
:100DC0000B2EBA2FA02D0B01B90190010C01CA0105
:100DD000A0011124FF27591B99F0593F50F4503EB0
:100DE00068F11A16F040A22F232F342F4427585FA2
:100DF000F3CF469537952795A795F0405395C9F7BA
:100E00007EF41F16BA0B620B730B840BBAF0915071
:100E1000A1F0FF0FBB1F661F771F881FC2F70EC010
:100E2000BA0F621F731F841F48F4879577956795E3
:100E3000B795F7959E3F08F0B3CF9395880F08F0CC
:100E40009927EE0F9795879508950CD0E6C0DED0D0
:100E500040F0D5D030F021F45F3F19F0C7C05111F8
:100E600010C1CAC0EBD098F39923C9F35523B1F34D
:100E7000951B550BBB27AA2762177307840738F009
:100E80009F5F5F4F220F331F441FAA1FA9F333D068
:100E90000E2E3AF0E0E830D091505040E695001C1C
:100EA000CAF729D0FE2F27D0660F771F881FBB1FD8
:100EB000261737074807AB07B0E809F0BB0B802DB2
:100EC000BF01FF2793585F4F2AF09E3F510568F0FE
:100ED0008DC0D7C05F3FECF3983EDCF386957795E5
:100EE0006795B795F7959F5FC9F7880F911D969500
:100EF000879597F90895E1E0660F771F881FBB1F5C
:100F0000621773078407BA0720F0621B730B840B08
:100F1000BA0BEE1F88F7E095089598D088F09F5798
:100F200090F0B92F9927B751A0F0D1F0660F771F35
:100F3000881F991F1AF0BA95C9F712C0B13081F015
:100F40009FD0B1E008959CC0672F782F8827B85FA5
:100F500039F0B93FCCF3869577956795B395D9F776
:100F60003EF490958095709561957F4F8F4F9F4F80
:100F70000895E89409C097FB3EF49095809570958C
:100F800061957F4F8F4F9F4F9923A9F0F92F96E9D5
:100F9000BB279395F695879577956795B795F1114A
:100FA000F8CFFAF4BB0F11F460FF1BC06F5F7F4FE7
:100FB0008F4F9F4F16C0882311F096E911C07723F9
:100FC00021F09EE8872F762F05C0662371F096E802
:100FD000862F70E060E02AF09A95660F771F881FD1
:100FE000DAF7880F9695879597F9089597F99F678F
:100FF00080E870E060E008959FEF80EC08950024A1
:101000000A941616170618060906089500240A946D
:1010100012161306140605060895092E0394000CF3
:1010200011F4882352F0BB0F40F4BF2B11F460FF82
:1010300004C06F5F7F4F8F4F9F4F089557FD9058AB
:10104000440F551F59F05F3F71F04795880F97FB8C
:10105000991F61F09F3F79F0879508951216130646
:101060001406551FF2CF4695F1DF08C01616170675
:101070001806991FF1CF86957105610508940895AA
:10108000E894BB2766277727CB0197F908950BD003
:10109000C4CFB5DF28F0BADF18F0952309F0A6CF4A
:1010A000ABCF1124EECFCADFA0F3959FD1F3950FFC
:1010B00050E0551F629FF001729FBB27F00DB11DDC
:1010C000639FAA27F00DB11DAA1F649F6627B00D6C
:1010D000A11D661F829F2227B00DA11D621F739F55
:1010E000B00DA11D621F839FA00D611D221F749F63
:1010F0003327A00D611D231F849F600D211D822FAA
:10110000762F6A2F11249F5750408AF0E1F08823F0
:101110004AF0EE0FFF1FBB1F661F771F881F9150FD
:101120005040A9F79E3F510570F060CFAACF5F3FB6
:10113000ECF3983EDCF3869577956795B795F79530
:10114000E7959F5FC1F7FE2B880F911D96958795B8
:1011500097F90895A1E21A2EAA1BBB1BFD010DC031
:10116000AA1FBB1FEE1FFF1FA217B307E407F50757
:1011700020F0A21BB30BE40BF50B661F771F881F33
:10118000991F1A9469F760957095809590959B01C9
:10119000AC01BD01CF010895EE0FFF1F881F8BBF6B
:1011A0000790F691E02D199481E090E0F89400C04A
:0411B000F894FFCFE1
:1011B40000000000C1022B0259020D038A026802DA
:1011C4007C020D0A00574C426F696C6572203A200C
:1011D40000426F696C65722054656D70203A20007E
:00000001FF
